:1000000000000020F50400005198000057980000FF
:100010005D980000639800006998000000000000EF
:100020000000000000000000000000006505000066
:100030006F980000000000000B0600006B06000037
:10004000419000004F9000005D9000006B90000018
:10005000799000008790000095900000A390000028
:10006000B1900000BF900000CD900000DB90000038
:10007000E9900000F7900000059100001391000046
:1000800021910000759800007B9800008198000085
:10009000879800008D9800009398000099980000C0
:1000A0009F980000A5980000AB980000B198000050
:1000B000B7980000BD980000C39800002F91000081
:1000C000C99800003D910000CF9800004B910000BE
:1000D000D598000059910000DB980000E1980000DD
:1000E000E7980000ED980000F3980000F9980000F0
:1000F000FF980000059900000B990000119900007D
:1001000005050000050500000505000005050000C7
:10011000179900001D9900002399000029990000FB
:100120002F990000359900003B990000419900008B
:10013000479900004D99000053990000599900001B
:100140005F99000065990000679100006B990000BD
:100150007591000071990000779900007D99000069
:1001600083990000899900008F99000095990000FB
:100170009B990000A1990000A7990000AD9900008B
:10018000B399000005050000050500000505000005
:100190000505000005050000050500000505000037
:1001A0000505000005050000050500000505000027
:1001B0000505000005050000050500000505000017
:1001C0000505000005050000050500000505000007
:1003F000050500000505000005050000FFFFFFFFE3
:10040000FFFFFFFFFFFFFFFFFFFFFFFFFEFFFFFFFD
:1004400010B5054C237833B9044B13B10448AFF30E
:1004500000800123237010BDD01000200000000098
:10046000882E010008B5034B1BB103490348AFF3C5
:10047000008008BD00000000D4100020882E01007C
:10048000154B002B08BF134B9D46A3F5803A002166
:100490008B460F461348144A121A0EF0C5FF0F4B35
:1004A000002B00D098470E4B002B00D0984700201F
:1004B000002104000D000D48002802D00C480EF069
:1004C00091FC0EF0D9FC2000290008F095FD0EF0FB
:1004D00095FC00BF000008000000002000000000A4
:1004E000298D0000D010002070700020E5ED000084
:1004F0001DEE000072B609F0FBFC09F093FC62B639
:10050000FFF7BEFFFFF7FEBF80F309887047EFF3E8
:1005100009807047684680F309885A480078C00708
:1005200014BF0220032080F314887047DFF858C1FD
:10053000EFF305831B0618BF6047EFF31483DB0757
:1005400008BF604700DF7047DFF840C1EFF3058365
:100550001B0618BF6047EFF31483DB0708BF604733
:1005600000DF7047EFF30980816911F8021CE1BBDD
:1005700090E80F1010B5E047BDE81040EFF3098C8C
:100580008CE80700424B93E80600914208BF704791
:1005900041B91EF0100F16D13E49086820F0010045
:1005A000086010E01EF0100F06BF2CED108A01202D
:1005B000002081F825002CE9F00FC1F828C00CB408
:1005C0000BF072FA0CBC1A60D2F828C0BCE8F00F2D
:1005D00092F8250000280EBF6FF0020E6FF0120E89
:1005E000BCEC108A8CF30988704710B52A4A12684F
:1005F000914209D8294C54F8214090E80F10A047A7
:10060000EFF3098C8CE80F0010BD10B50BF0D0F99A
:10061000BDE810401E4B93E80600914208BF7047AA
:10062000EFF3098C1EF0100F06BF2CED108A01208D
:10063000002081F825002CE9F00FC1F828C00CB487
:100640000BF032FA0CBC1A60D2F828C0BCE8F00FEC
:1006500092F8250000280EBF6FF0020E6FF0120E08
:10066000BCEC108A8CF30988704710B50BF0FEF9CA
:10067000FFF7CEBF10B50BF0F7F90BF0F7F9FFF766
:10068000C7BF0000E81A010035B3000051B30000F5
:100690000C70002034EF00E000000000FCFFFFFFC2
:1006A00081F0004102E000BF83F0004330B54FEA23
:1006B00041044FEA430594EA050F08BF90EA020F90
:1006C0001FBF54EA000C55EA020C7FEA645C7FEA23
:1006D000655C00F0E2804FEA5454D4EB5555B8BF46
:1006E0006D420CDD2C4480EA020281EA030382EAB7
:1006F000000083EA010180EA020281EA0303362D49
:1007000088BF30BD11F0004F4FEA01314FF4801C1B
:100710004CEA113102D0404261EB410113F0004F2D
:100720004FEA03334CEA133302D0524263EB4303E4
:1007300094EA050F00F0A780A4F10104D5F1200E82
:100740000DDB02FA0EFC22FA05F2801841F10001DD
:1007500003FA0EF2801843FA05F359410EE0A5F1B1
:1007600020050EF1200E012A03FA0EFC28BF4CF0E2
:10077000020C43FA05F3C01851EBE37101F0004598
:1007800007D54FF0000EDCF1000C7EEB00006EEBA5
:100790000101B1F5801F1BD3B1F5001F0CD349082F
:1007A0005FEA30004FEA3C0C04F101044FEA445286
:1007B00012F5800F80F09A80BCF1004F08BF5FEA0D
:1007C000500C50F1000041EB045141EA050130BDED
:1007D0005FEA4C0C404141EB010111F4801FA4F190
:1007E0000104E9D191F0000F04BF01460020B1FAE5
:1007F00081F308BF2033A3F10B03B3F120020CDA1D
:100800000C3208DD02F1140CC2F10C0201FA0CF0FA
:1008100021FA02F10CE002F11402D8BFC2F1200C5F
:1008200001FA02F120FA0CFCDCBF41EA0C01904015
:10083000E41AA2BF01EB0451294330BD6FEA04045E
:100840001F3C1CDA0C340EDC04F11404C4F1200249
:1008500020FA04F001FA02F340EA030021FA04F35B
:1008600045EA030130BDC4F10C04C4F1200220FAB2
:1008700002F001FA04F340EA0300294630BD21FAF0
:1008800004F0294630BD94F0000F83F4801306BFB6
:1008900081F480110134013D4EE77FEA645C18BFAA
:1008A0007FEA655C29D094EA050F08BF90EA020F41
:1008B00005D054EA000C04BF1946104630BD91EA39
:1008C000030F1EBF0021002030BD5FEA545C05D13C
:1008D0004000494128BF41F0004130BD14F580047B
:1008E0003CBF01F5801130BD01F0004545F0FE41EF
:1008F00041F470014FF0000030BD7FEA645C1ABF24
:10090000194610467FEA655C1CBF0B46024650EA5A
:10091000013406BF52EA033591EA030F41F4002186
:1009200030BD00BF90F0000F04BF0021704730B50C
:100930004FF4806404F132044FF000054FF00001E1
:1009400050E700BF90F0000F04BF0021704730B5A2
:100950004FF4806404F1320410F0004548BF404277
:100960004FF000013EE700BF42004FEAE2014FEACC
:1009700031014FEA02701FBF12F07F4393F07F4FA7
:1009800081F06051704732F07F4208BF704793F0AA
:100990007F4F04BF41F40021704730B54FF46074BD
:1009A00001F0004521F000411CE700BF50EA0102C0
:1009B00008BF704730B54FF000050AE050EA010269
:1009C00008BF704730B511F0004502D5404261EBD9
:1009D00041014FF4806404F132045FEA915C3FF41A
:1009E000D8AE4FF003025FEADC0C18BF03325FEAB7
:1009F000DC0C18BF033202EBDC02C2F1200300FA68
:100A000003FC20FA02F001FA03FE40EA0E0021FA8C
:100A100002F11444BDE600BF70B54FF0FF0C4CF47A
:100A2000E06C1CEA11541DBF1CEA135594EA0C0F2C
:100A300095EA0C0F00F0DEF82C4481EA030621EA67
:100A40004C5123EA4C5350EA013518BF52EA0335A2
:100A500041F4801143F4801338D0A0FB02CE4FF054
:100A60000005E1FB02E506F00042E0FB03E54FF084
:100A70000006E1FB03569CF0000F18BF4EF0010E7C
:100A8000A4F1FF04B6F5007F64F5407404D25FEA78
:100A90004E0E6D4146EB060642EAC62141EA55512B
:100AA0004FEAC52040EA5E504FEACE2EB4F1FD0C6D
:100AB00088BFBCF5E06F1ED8BEF1004F08BF5FEAEB
:100AC000500E50F1000041EB045170BD06F000469D
:100AD00046EA010140EA020081EA0301B4EB5C044A
:100AE000C2BFD4EB0C0541EA045170BD41F4801142
:100AF0004FF0000E013C00F3AB8014F1360FDEBF67
:100B0000002001F0004170BDC4F10004203C35DA42
:100B10000C341BDC04F11404C4F1200500FA05F3C5
:100B200020FA04F001FA05F240EA020001F0004266
:100B300021F0004110EBD37021FA04F642EB0601DC
:100B40005EEA430E08BF20EAD37070BDC4F10C0406
:100B5000C4F1200500FA04F320FA05F001FA04F2CA
:100B600040EA020001F0004110EBD37041F10001B6
:100B70005EEA430E08BF20EAD37070BDC4F12005C1
:100B800000FA05F24EEA020E20FA04F301FA05F229
:100B900043EA020321FA04F001F0004121FA04F2D1
:100BA00020EA020000EBD3705EEA430E08BF20EAA1
:100BB000D37070BD94F0000F0FD101F000464000DB
:100BC00041EB010111F4801F08BF013CF7D041EA5D
:100BD000060195F0000F18BF704703F00046520061
:100BE00043EB030313F4801F08BF013DF7D043EA32
:100BF0000603704794EA0C0F0CEA135518BF95EAE8
:100C00000C0F0CD050EA410618BF52EA4306D1D16E
:100C100081EA030101F000414FF0000070BD50EA8D
:100C2000410606BF1046194652EA430619D094EA17
:100C30000C0F02D150EA013613D195EA0C0F05D101
:100C400052EA03361CBF104619460AD181EA030155
:100C500001F0004141F0FE4141F470014FF000000D
:100C600070BD41F0FE4141F4780170BD70B54FF0A8
:100C7000FF0C4CF4E06C1CEA11541DBF1CEA135528
:100C800094EA0C0F95EA0C0F00F0A7F8A4EB05040A
:100C900081EA030E52EA03354FEA013100F0888001
:100CA0004FEA03334FF0805545EA131343EA1263CA
:100CB0004FEA022245EA111545EA10654FEA00267F
:100CC0000EF000419D4208BF964244F1FD0404F538
:100CD000407402D25B084FEA3202B61A65EB030594
:100CE0005B084FEA32024FF480104FF4002CB6EB51
:100CF000020E75EB030E22BFB61A754640EA0C00D1
:100D00005B084FEA3202B6EB020E75EB030E22BF10
:100D1000B61A754640EA5C005B084FEA3202B6EB51
:100D2000020E75EB030E22BFB61A754640EA9C0010
:100D30005B084FEA3202B6EB020E75EB030E22BFE0
:100D4000B61A754640EADC0055EA060E18D04FEA9E
:100D5000051545EA16754FEA06164FEAC30343EA3E
:100D600052734FEAC2025FEA1C1CC0D111F4801F0B
:100D70000BD141EA00014FF000004FF0004CB6E704
:100D800011F4801F04BF01430020B4F1FD0C88BFA3
:100D9000BCF5E06F3FF6AFAEB5EB030C04BFB6EBAE
:100DA000020C5FEA500C50F1000041EB045170BDA1
:100DB0000EF0004E4EEA113114EB5C04C2BFD4EBCE
:100DC0000C0541EA045170BD41F480114FF0000E52
:100DD000013C90E645EA060E8DE60CEA135594EACE
:100DE0000C0F08BF95EA0C0F3FF43BAF94EA0C0FD1
:100DF0000AD150EA01347FF434AF95EA0C0F7FF446
:100E000025AF104619462CE795EA0C0F06D152EA99
:100E100003353FF4FDAE1046194622E750EA41067D
:100E200018BF52EA43067FF4C5AE50EA41047FF48E
:100E30000DAF52EA43057FF4EBAE12E74FF0FF3CF3
:100E400006E000BF4FF0010C02E000BF4FF0010CC4
:100E50004DF804CD4FEA410C7FEA6C5C4FEA430C3D
:100E600018BF7FEA6C5C1BD001B050EA410C0CBF8C
:100E700052EA430C91EA030F02BF90EA020F0020EE
:100E8000704710F1000F91EA030F58BF994208BF55
:100E900090422CBFD8176FEAE37040F00100704712
:100EA0004FEA410C7FEA6C5C02D150EA013C07D169
:100EB0004FEA430C7FEA6C5CD6D152EA033CD3D0B4
:100EC0005DF8040B704700BF8446104662468C46AE
:100ED0001946634600E000BF01B5FFF7B7FF0028E1
:100EE00048BF10F1000F01BD4DF808EDFFF7F4FF0A
:100EF0000CBF012000205DF808FB00BF4DF808ED95
:100F0000FFF7EAFF34BF012000205DF808FB00BFB7
:100F10004DF808EDFFF7E0FF94BF012000205DF8D9
:100F200008FB00BF4DF808EDFFF7CEFF94BF01208E
:100F300000205DF808FB00BF4DF808EDFFF7C4FF87
:100F400034BF012000205DF808FB00BF4FEA410CD0
:100F50007FEA6C5C02D150EA013C0AD14FEA430CB3
:100F60007FEA6C5C02D152EA033C02D14FF00000F0
:100F700070474FF0010070474FEA410212F500122E
:100F800015D211D56FF47873B3EB625212D94FEAD0
:100F9000C12343F0004343EA505311F0004F23FABA
:100FA00002F018BF404270474FF00000704750EA0F
:100FB000013005D111F0004008BF6FF000407047CC
:100FC0004FF00000704700BF4A0011D212F5001226
:100FD00011D20DD56FF47873B3EB62520ED44FEA91
:100FE000C12343F0004343EA505323FA02F0704711
:100FF0004FF00000704750EA013002D14FF0FF304F
:1010000070474FF0000070474FEA4102B2F1E043F1
:1010100024BFB3F5001CDCF1FE5C0DD901F0004CDF
:101020004FEAC0024CEA5070B2F1004F40EB83002F
:1010300008BF20F00100704711F0804F21D113F15B
:101040003872BCBF01F00040704741F480114FEA94
:101050005252C2F11802C2F1200C10FA0CF320FA1D
:1010600002F018BF40F001004FEAC1234FEAD3233A
:1010700003FA0CFC40EA0C0023FA02F34FEA4303A4
:10108000CCE77FEA625307D150EA01331EBF4FF02D
:10109000FE4040F44000704701F0004040F0FE4048
:1010A00040F40000704700BF53B94AB9002908BF97
:1010B00000281CBF4FF0FF314FF0FF3001F0F8B8AF
:1010C000ADF1080C6DE904CE00F006F8DDF804E09F
:1010D000DDE9022304B070472DE9F047089E04467D
:1010E0008846002B4BD18A42154667D9B2FA82F264
:1010F0004AB1C2F1200701FA02F320FA07F795403E
:1011000047EA030894404FEA154E230CB8FBFEF75C
:101110001FFA85FC0EFB178843EA084307FB0CF116
:10112000994209D9EB1807F1FF3080F01B819942F1
:1011300040F21881023F2B445B1AA4B2B3FBFEF0CD
:101140000EFB103344EA034400FB0CFCA44509D910
:101150002C1900F1FF3380F00781A44540F204818F
:1011600002382C4440EA0740A4EB0C0400271EB1CF
:10117000D4400023C6E900433946BDE8F0878B42DE
:1011800009D9002E00F0EB800027C6E9000138469F
:101190003946BDE8F087B3FA83F7002F47D18B4279
:1011A00002D3824200F2FA80841A61EB0303012029
:1011B0009846002EE0D0C6E90048DDE702B9FFDE20
:1011C000B2FA82F2002A40F08F80491B4FEA154E96
:1011D0001FFA85F80127B1FBFEFC230C0EFB1C1146
:1011E00043EA014308FB0CF1994207D9EB180CF1D3
:1011F000FF3002D2994200F2CD808446591AA3B240
:10120000B1FBFEF00EFB101443EA044408FB00F8A7
:10121000A04507D92C1900F1FF3302D2A04500F2F6
:10122000B6801846A4EB080440EA0C409FE7C7F1DB
:10123000200CBB4022FA0CFE4EEA030E01FA07F422
:1012400020FA0CF521FA0CF34FEA1E482543B3FBB4
:10125000F8F92C0C08FB19331FFA8EFA44EA034301
:1012600009FB0AF49C4202FA07F200FA07F10BD9D3
:101270001EEB030309F1FF3080F087809C4240F2AF
:101280008480A9F1020973441B1BADB2B3FBF8F0D3
:1012900008FB103345EA034400FB0AFAA24508D9CB
:1012A0001EEB040400F1FF336BD2A24569D902386A
:1012B000744440EA0940A0FB0289A4EB0A044C45AF
:1012C000C2464B4654D351D0002E69D0B1EB0A052B
:1012D00064EB030404FA0CFCFD40FC404CEA0505F9
:1012E000C6E90054002747E7C2F1200320FA03F7BC
:1012F000954001FA02F021FA03F34FEA154E384304
:10130000010CB3FBFEF71FFA85F80EFB173341EA19
:10131000034107FB08F38B4204FA02F407D969186A
:1013200007F1FF3C2FD28B422DD9023F2944CB1A23
:1013300081B2B3FBFEF00EFB103341EA034100FB28
:1013400008F38B4207D9691800F1FF3C17D28B4292
:1013500015D902382944C91A40EA07473BE73746FE
:10136000304609E70746E7E61846FBE64145ABD2BB
:10137000B8EB020A69EB0E0201381346A4E7604697
:10138000E9E7184695E76746D1E781467CE70238EA
:101390002C4447E7ACF1020C2B442FE7384608E712
:1013A0003746E9E603685A004CBF43F0004323F098
:1013B00000431844704700BF61B32DE9F84F01F1B5
:1013C000FF3A90460646D146002707EB090404EB96
:1013D000D4746410E50071190846FFF7E3FFA245D5
:1013E000834605F10800304409D0FFF7DBFFC34511
:1013F00000F1FF3005D8404509D2671CE5E7C34539
:1014000005D9A74202D004F1FF39DEE700210846E2
:10141000BDE8F88F08467047012807D0022807D09A
:10142000044B00280CBF1846002070470248704744
:1014300002487047051B0000091B00000D1B00003F
:1014400030B5254B83B004468D1E4BB301A9284609
:10145000AFF30080F0B101992A46FFF7ADFF0146D6
:10146000C0B1FFF79FFF4B68A064012B2ED0002B6B
:1014700001F1040026DBFFF795FF0023C4E9130305
:101480000368002B12DBFFF78DFF00232061184655
:1014900003B030BD002323610923184603B030BDDB
:1014A0000E490F48091AC9100191D5E7C3F303602B
:1014B000FFF7B2FF002814BF00230923206118465C
:1014C00003B030BD0123C4E91303D9E7002323612E
:1014D0000523184603B030BD00000000D4370100DA
:1014E000143301000368DA0710B5044606D49B07DD
:1014F00000F1480009D500F05FFC2368590709D5C1
:101500001A070ED5DB0613D510BD00F04DFC23687D
:101510005907F5D404F1D00000F056FC23681A07EF
:10152000F0D404F5A87000F057FC2368DB06EBD478
:1015300004F5E870BDE8104000F092BC036803B108
:1015400003441846704700BF09207047704700BF2A
:1015500070B504460D4608E02B6C63612A4623698A
:10156000214601209847082808D1296C2046FFF71A
:1015700067FF06460028EFD00DF00EFC0728FBD1D0
:101580003046296CFFF7E2FF281D00F001FC00BF88
:101590002DE9F0470C1D054617460FCCADF5727DC1
:1015A00003AE0FC60FCC0FC60FCC0FC694E80F00CA
:1015B00002ACD5F80C80D5F8189086E80F0000230F
:1015C000236021E0236C6B614FF4F07221467AA80E
:1015D00000F070FE2B697AAA294630469847889B0E
:1015E000CDE900498246636431462B462A460120F4
:1015F000C0470746F8B94FF4F0727AA9204600F0C8
:1016000059FEBAF1080F1CD1216C2846FFF718FFCC
:10161000002F08BF0926074618BF0A260028D1D088
:10162000A36B46F01001CDE900492A46636401200E
:101630002B46C04700B1092738460DF5727DBDE83D
:10164000F087BAF1070FF6D13846216CFFF77EFF1D
:1016500003A800F09DFB00BF406C7047F0B5CB6B5A
:101660000B640D1D0F4606460FCDF9B001AC0FC43B
:101670000FCD0FC40FCD0FC495E80F004FF0FF350D
:1016800084E80F00009506E033696A4631469847C2
:101690000828044608D110993046FFF7D1FE0028EB
:1016A000F2D0092079B0F0BD6846FFF71BFF062C89
:1016B000F7D139463046FFF74BFF00BF30B4DD6B42
:1016C000C160826119461D64002230BC60E700BF22
:1016D00070B5C66843690B64BEB903690A4604461F
:1016E0000D46014602209847072807D0082803D155
:1016F00029462046FFF72CFF0DF04EFB3046296CA3
:10170000FFF724FF281D00F043FB0122FFF740FFF5
:101710000DF042FBC2681AB1CA6B0A64002237E7B7
:101720009CE700BF704700BF836813B101460120EA
:1017300018477047042907D8DFE801F003080608B6
:1017400008000BB90F2A03D9022070470120704707
:1017500000EB820218465368009A1360704700BF7E
:1017600010B584B0002303AC0A4600941946FFF775
:10177000E1FF039804B010BD042907D8DFE801F0A9
:101780000308060808000BB90F2A03D90220704786
:101790000120704700EB8200009A126842601846F0
:1017A000704700BF10B584B004AC002344F8042D8A
:1017B0000A4600941946FFF7DFFF04B010BD00BFD2
:1017C000F0B5D36B1364151D07460E460FCDADF56E
:1017D0000F7D17AC0FC40FCD0FC40FCD0FC495E80C
:1017E0000F004FF0FF3584E80F00169510E016A8A3
:1017F000FFF7D8FF314616A8B84716AA694678B948
:10180000049B08209847052804460AD0092807D0D9
:1018100026996846FFF714FE6A460C210028E6D098
:10182000092416A8FFF75EFE20460DF50F7DF0BDDA
:101830002DE9F04F0D46C96C89B00C1D164600F01D
:10184000030B0A6806941F46002B68D0130CD9B20C
:1018500012048DF81D30022304EB810405928DF8EB
:101860001C302B6DBBF1020F08BFAC6B13F00103F2
:1018700046D1019300F008030093D4F80090B9F129
:10188000000F00F0F380022F45D0B4F80090B4F8B8
:1018900002800434AB6C28F0010A0F2130469A44D0
:1018A000FFF75EFF824534D829F001035344834299
:1018B00094BF002001204FEA480808F0020809F010
:1018C000010948EA0908B8F1010F3AD031D3B8F15B
:1018D000020F1AD1236823F0004ABBF1000F66D132
:1018E00030B1009A002A6CD0BAF1000F00F090805D
:1018F000002B00DA04340AF1010304EB8304BCE793
:10190000304605A900F046FB78B1092009B0BDE8D2
:10191000F08F0020CFE7D4F804800834BAE7120231
:1019200003230592ADF81C309BE7082009B0BDE801
:10193000F08FBBF1000F02D0002840F0B4800434D7
:101940009BE7BBF1000F18D1A8B1D4E90023991C83
:101950004FEAD272D9D005F158010133049100F059
:10196000B580201DFFF7EAFD04AB01462846AFF322
:101970000080002867D108347FE70D213046D5F874
:101980002080FFF7EDFE8045F5D1AB6A9C42F2D195
:101990002046FFF707FD0F2102463046FFF702FF02
:1019A00030462A460021FFF7FDFE0720AEE70D2155
:1019B0003046D5F82080FFF7D3FE804532D023682B
:1019C00096E7BAF1000F23D005F1580304F104089B
:1019D000CDF808B0DDF800900397A3461C4602E05E
:1019E0005745B94640D040460494FFF7A7FD04ABE5
:1019F000014600222846AFF3008009F1010708F1F3
:101A000004080028ECD0D1455C46DDE902B7D6D108
:101A100030460D21FFF7A4FE049B2862C5E9093476
:101A2000062073E7AB6A9C42C9D104224FF000083C
:101A3000A318C5E90AA8C5E90C23236843454DDB73
:101A40000123019357E780460D213046FFF788FEBA
:101A5000B8F1020F28623ED12B46049A43F82C2F8E
:101A60006B62AC62062051E75C46D1E705A93046BF
:101A700000F090FA00287FF448AF019B002B3FF460
:101A800054AF0F213046FFF76BFE0E210246304661
:101A9000FFF788FE30461A4A0F21FFF783FE072022
:101AA00009B0BDE8F08F2046FFF77CFC0434074600
:101AB000AC632846AFF3008000283FF426AF3046E1
:101AC0003A460F21FFF76EFE07201FE730460D2133
:101AD000FFF746FE2862049B6B62C2E70AF1010031
:101AE00004EB8000FFF75EFC0F2102463046FFF753
:101AF00059FE30462A464146FFF754FE072005E7C7
:101B000000000000002393E6012391E602238FE604
:101B10002DE9F0410546C4B0042906D8DFE801F0FC
:101B20004D2B05030900032B5FD0022044B0BDE814
:101B3000F081002BF9D1102AF7D82B68DC0600F1D0
:101B4000F48022AC2046019200F094F9A86B019A2F
:101B50000023012606FA03F1114203D0016844F87C
:101B6000231004300133042BF4D1A863204600F085
:101B700077F90020DAE7012B4FEA124697B252D0EC
:101B8000052BD2D106EB0708B8F1200FCDD80F2EC8
:101B900040F29980B846002F40F0DB80AA6BAA6320
:101BA0000F2E40F2BE80B8F1000F02D002A800F064
:101BB0000BF9002044B0BDE8F081002BB5D1AC6B2F
:101BC00097B2281D012606FA03F1394203F10103F9
:101BD00002D0216801600434102B00F10400F2D11E
:101BE00012F40050E5D1AC63A0E7160C97B2F319DC
:101BF000102B9AD82B681A075DD422AC204600F02F
:101C00000DF904EBC601AB6B3FB103EBC7021868DB
:101C100041F8040B04339342F9D12046AB6300F042
:101C2000DBF8002082E7F219102A3FF67EAF0F2E74
:101C30003FF67BAF2A68D10708D5284622F0030279
:101C400040F8482B019300F0B3F8019B019322ACBC
:101C5000204600F0ADF8A96B019B002F00F09580A5
:101C60007F0004EBC6044FF00008043C01EB870240
:101C700051F8040B44F8040F9142F9D1B8F1000F68
:101C80000FD002AC102E314638BF102104EBC10139
:101C9000843902EBC80452F8040B41F8040F944253
:101CA000F9D1012B7FF47BAF22AC0432AA6320462A
:101CB00000F07AF87DE723F008032B6005F5A870A3
:101CC00000F0ACF899E7B8F1100F2A6843D9D007B3
:101CD000A8F110080BD5284622F0010242F00202BA
:101CE00040F8482B019300F06BF82A68019B5107DC
:101CF00025D40F2E04D822A8019300F061F8019B8F
:101D0000019302AC204600F063F8C6F110010029EF
:101D1000AA6B019BB6DD22AC4F0004EBC604114652
:101D2000A3E722A800F048F83DE723F010032B605A
:101D300005F5E870019200F09DF8019A01E7284648
:101D400022F0040240F8D02B019300F041F8019BEF
:101D5000CFE72A68CBE7D0070AD5284622F0010250
:101D600042F0020240F8482B019300F029F8019B51
:101D7000019322AC204600F023F8B846A96B019BE2
:101D8000002F7FF46DAF0A4609E70A468DE700BFD2
:101D900000F1340191E838009C46A6464CF8045DF9
:101DA00090E8FF0FE54600BD90EC210B704700BFA7
:101DB00080EC210B704700BF90EC200B704700BFF8
:101DC00080EC200B704700BFD0EC200B704700BFA9
:101DD000C0EC200B704700BFF0EC0201F0EC0211E8
:101DE000F0EC0221F0EC0231F0EC0241F0EC025197
:101DF000F0EC0261F0EC0271F0EC0281F0EC029187
:101E0000F0EC02A1F0EC02B1F0EC02C1F0EC02D176
:101E1000F0EC02E1F0EC02F1704700BFE0EC0201EF
:101E2000E0EC0211E0EC0221E0EC0231E0EC0241D6
:101E3000E0EC0251E0EC0261E0EC0271E0EC0281C6
:101E4000E0EC0291E0EC02A1E0EC02B1E0EC02C1B6
:101E5000E0EC02D1E0EC02E1E0EC02F1704700BFFF
:101E6000B0FC0181B0FC0191B0FC01A1B0FC01B15A
:101E7000704700BFA0FC0181A0FC0191A0FC01A162
:101E8000A0FC01B1704700BFEC4600B52DE9005041
:101E90002DE9FF1F4FF000032DE90C0001A9FFF70A
:101EA000DDFBDDF840E012B0704700BFEC4600B546
:101EB0002DE900502DE9FF1F4FF000032DE90C0024
:101EC00001A9FFF705FCDDF840E012B0704700BF44
:101ED000EC4600B52DE900502DE9FF1F4FF000033F
:101EE0002DE90C0001A9FFF715FCDDF840E012B068
:101EF000704700BFEC4600B52DE900502DE9FF1FEB
:101F00004FF000032DE90C0001ABFFF7D7FBDDF824
:101F100040E012B0704700BFEC4600B52DE900501C
:101F20002DE9FF1F4FF000032DE90C0001AAFFF778
:101F300047FCDDF840E012B0704700BF027A82B97A
:101F4000437AABB14268013B10B44372136803217A
:101F5000141D01721A02446002605DF8044B180EF1
:101F600070470368013A02721A020260180E704745
:101F7000B020704700B585B003AA0023009219462F
:101F80000C22FFF7D7FB039805B05DF804FB00BFF8
:101F9000F0E700BF2DE9F043054685B00E464FF04F
:101FA00000083046FFF7CAFFB028044600F0B180B1
:101FB000070620D500F0F003802B65D0902B36D09B
:101FC000A02B78D0B02B47D0C02B00F08A8000F037
:101FD000F803D02B0BD100F00702013242F40022AB
:101FE000052301212846FFF793FD0028D9D00920B9
:101FF00005B0BDE8F0830DF10C09002319468700F8
:10200000CDF800900D222846FFF794FBFFB2039B0A
:10201000CDF80090043760064CBFDF1BFF1800238B
:1020200019460D2228460397FFF7A6FBB9E700F0F3
:102030000D030D2BDBD003AF002300F00F02194678
:1020400000972846FFF776FB0023009719460D22DC
:102050002846FFF791FBA4E7B1285FD0B22800F033
:10206000CC80B3287ED000F0FC03B42BBFD000F0AE
:1020700007020132012342F4002219462846FFF7E5
:1020800047FD00288DD0B2E73046FFF757FF240206
:102090000443B4F5004FAAD024010023A2B219468C
:1020A0002846FFF735FD0028A1D114F4004F18BFD2
:1020B0004FF0010875E7C24302F007034FF47F6257
:1020C0001A41010702F47F624FF0000348BF42F457
:1020D000804219462846FFF71BFD00283FF461AFF8
:1020E00085E7C62851D0C7285AD000F0F803C02B86
:1020F00069D0C82875D0C9287FF479AF3046FFF77A
:102100001DFF020300F00F0002F4702201300243B1
:1021100066E7B8F1000F14D0002069E73046FFF7FA
:102120000DFF00283FF463AF10F0F0037FF45FAFC2
:10213000024619462846FFF7EBFC00283FF431AF72
:1021400055E703AC43460E22414600942846FFF76C
:10215000F1FA0094284643460F224146FFF70CFB54
:10216000404645E73046FFF7E9FE010300F00F0067
:1021700001F47021421C01230A4328461946FFF747
:10218000C7FC00283FF40DAF31E73046FFF7D6FE1D
:10219000010300F00F0001F47021421C0323EBE760
:1021A0003046FFF7CBFE024600283FF420AF10F088
:1021B000F0037FF41CAF04212846FFF7A9FC002898
:1021C0003FF4EFAE13E700F00F020132032342F4B5
:1021D000202219462846FFF79BFC00283FF4E1AE79
:1021E00005E73046FFF7AAFE00F0F00200F00F030B
:1021F0001032013343EA0232F2E600230DF10C09FA
:102200000D221946CDF800902846FFF793FA304684
:10221000FFF794FE02064FF002070CD5039B00F077
:102220007F00B840034430460393FFF787FE030660
:1022300007F10707F2D4039BCDF8009000F07F046C
:1022400003F50172BC400023144419460D222846B0
:102250000394FFF791FAA4E610B5C36C84B05A68F2
:1022600003208DF80C00DC798DF80D401202083344
:10227000084601A901920293FFF78CFE04B010BD3D
:1022800008B5FFF785FE806C08BD00BF08B5FFF7F5
:102290007FFEC06CC37900EB8300083008BD00BF2F
:1022A00008B50CF079FD00BF08B5FFF7F9FF00BFD6
:1022B000704700BF844641EA000313F003036DD169
:1022C000403A41D351F8043B40F8043B51F8043BF9
:1022D00040F8043B51F8043B40F8043B51F8043B00
:1022E00040F8043B51F8043B40F8043B51F8043BF0
:1022F00040F8043B51F8043B40F8043B51F8043BE0
:1023000040F8043B51F8043B40F8043B51F8043BCF
:1023100040F8043B51F8043B40F8043B51F8043BBF
:1023200040F8043B51F8043B40F8043B51F8043BAF
:1023300040F8043B51F8043B40F8043B51F8043B9F
:1023400040F8043B403ABDD2303211D351F8043B3F
:1023500040F8043B51F8043B40F8043B51F8043B7F
:1023600040F8043B51F8043B40F8043B103AEDD2EE
:102370000C3205D351F8043B40F8043B043AF9D23F
:10238000043208D0D2071CBF11F8013B00F8013B12
:1023900001D30B8803806046704700BF082A13D31F
:1023A0008B078DD010F003038AD0C3F10403D21A37
:1023B000DB071CBF11F8013B00F8013B80D331F86B
:1023C000023B20F8023B7BE7043AD9D3013A11F8EB
:1023D000013B00F8013BF9D20B7803704B78437056
:1023E0008B7883706046704700000000000000009A
:1023F00001F0FF01102A2BDB10F0070F08D010F8B6
:10240000013B013A8B422DD010F0070F42B3F6D1B9
:10241000F0B441EA012141EA014122F007047FF0D2
:1024200000070023F0E80256083C85EA010586EA29
:10243000010685FA47F5A3FA87F586FA47F6A5FA65
:1024400087F68EB9EED1F0BC01F0FF0102F0070271
:1024500032B110F8013B013A83EA010313B1F8D11C
:102460000020704701387047002D06BF35460338FD
:10247000073815F0010F07D1013015F4807F02BF36
:10248000013015F4C03F0130F0BC0138704700BF87
:10249000000000000000000000000000000000003C
:1024A000000000000000000000000000000000002C
:1024B000000000000000000000000000000000001C
:1024C00090F800F06DE9024520F007016FF0000C74
:1024D00010F0070491F820F040F049804FF000041C
:1024E0006FF00700D1E9002391F840F000F10800F7
:1024F00082FA4CF2A4FA8CF283FA4CF3A2FA8CF32F
:102500004BBBD1E9022382FA4CF200F10800A4FA95
:102510008CF283FA4CF3A2FA8CF3E3B9D1E90423E9
:1025200082FA4CF200F10800A4FA8CF283FA4CF320
:10253000A2FA8CF37BB9D1E9062301F1200182FADA
:102540004CF200F10800A4FA8CF283FA4CF3A2FAE0
:102550008CF3002BC6D0002A04BF04301A4612BAEE
:10256000B2FA82F2FDE8024500EBD2007047D1E9F1
:10257000002304F00305C4F100004FEAC50514F080
:10258000040F91F840F00CFA05F562EA05021CBF51
:1025900063EA050362464FF00004A9E7B0B584B0D2
:1025A00000AF6F4B93F81A2F6E4B03F5D4530E33D5
:1025B0001B789A4216D16B4B03F5D3531C331B681F
:1025C000674AB2F8902E93420CD3664B03F5D4536E
:1025D000093303221A70634B03F5D3531C330022D3
:1025E0001A60B9E05E4B03F55863D3E900455C4BD4
:1025F000B3F8A23E1846FEF795F902460B46204670
:102600002946FEF751F803460C4644EC173BB0EE62
:10261000470AF0EE670A07F053FFB0EE407AF0EE9B
:10262000607A87ED007B4FF000024F4BD7E9000145
:10263000FEF764FC0346002B14D04FF000024FF06D
:102640000003D7E90001FEF76DFC0346002B06D01E
:10265000D7E90001FEF7B8FC03467B8105E00023C3
:102660007B8102E04FF6FF737B817B893C4AB2F8A5
:10267000A42E9B1AFB607B89FA689A4201D9002339
:10268000FB60384B03F5D3531C331B68FA689A423E
:102690000CD8344B03F5D453093302221A70314B52
:1026A00003F5D3531C3300221A6055E02C4BB3F8CA
:1026B000963E022B06D02B4B03F5D453093313223D
:1026C0001A7049E0264B03F68853D3E90034244AB4
:1026D00002F6A852C2E90034224B03F5D4530E335C
:1026E0001A781F4B83F8182F1E4B03F5D4530E3363
:1026F0001A781B4B83F8172F1A4B03F5D4530F335B
:102700001A78174B83F8142F164B03F5D4530F3355
:102710001A78134B83F8132F124B03F5D4530F334E
:102720001A780F4B83F8162F0E4B03F5D4530F3343
:102730001A780B4B83F8112F0A4B03F5D4530E3341
:102740001A78074B83F8122F064B03F5D4530F3337
:102750001A78034B83F8152F00BF1037BD46B0BD64
:10276000F0100020102000200000F04080B400AFE6
:102770002D4B03F5D3531C331B682C4AB2F8A22E01
:1027800093420CD3284B03F5D453093303221A7018
:10279000254B03F5D3531C3300221A603FE0224B34
:1027A00003F5D4530F331A78204B83F8182F1E4BA0
:1027B00003F5D4530E331A781C4B83F8172F1A4B9A
:1027C00003F5D4530E331A78184B83F8112F164B98
:1027D00003F5D4530F331A78144B83F8122F124B8E
:1027E00003F5D4530F331A78104B83F8132F0E4B85
:1027F00003F5D4530F331A780C4B83F8162F0A4B7A
:1028000003F5D4530F331A78084B83F8152F064B72
:1028100003F5D4530F331A78044B83F8142F00BFF9
:10282000BD465DF8047B704710200020F0100020AA
:1028300090B400AF324B03F5D3531C331B68314ABD
:10284000B2F8A42E93420CD32D4B03F5D453093385
:1028500001221A702A4B03F5D3531C3300221A604D
:1028600049E0274B03F5D4530E331A78254B83F8F0
:10287000172F234B03F5D4530F331A78214B83F8CA
:10288000132F1F4B03F5D4530F331A781D4B83F8C6
:10289000162F1B4B03F5D4530E331A78194B83F8BC
:1028A000122F174B03F5D4530F331A78154B83F8B7
:1028B000152F134B03F5D4530F331A78114B83F8AC
:1028C000112F0F4B03F5D4530F331A780D4B83F8A8
:1028D000142F0C4B03F68853D3E90034094A02F64F
:1028E000A852C2E90034064B03F5D4530E331A78CC
:1028F000044B83F8182F00BFBD4690BC704700BF43
:1029000010200020F0100020B0B584B000AF6F4B55
:1029100093F81A2F6E4B03F5D4530E331B789A425B
:1029200016D16B4B03F5D3531C331B68674AB2F8BF
:10293000902E93420CD3664B03F5D45309330622F1
:102940001A70634B03F5D3531C3300221A60B9E0AD
:102950005E4B03F69853D3E900455C4BB3F8A23EB7
:102960001846FDF7DFFF02460B4620462946FDF7D5
:102970009BFE03460C4644EC173BB0EE470AF0EED4
:10298000670A07F09DFDB0EE407AF0EE607A87EDC1
:10299000007B4FF000024F4BD7E90001FEF7AEFA83
:1029A0000346002B14D04FF000024FF00003D7E98C
:1029B0000001FEF7B7FA0346002B06D0D7E9000165
:1029C000FEF702FB03467B8105E000237B8102E0EA
:1029D0004FF6FF737B817B893C4AB2F8A42E9B1A89
:1029E000FB607B89FA689A4201D90023FB60384B6F
:1029F00003F5D3531C331B68FA689A420CD8344B46
:102A000003F5D453093305221A70314B03F5D35320
:102A10001C3300221A6055E02C4BB3F8963E092B6C
:102A200006D02B4B03F5D453093313221A7049E017
:102A3000264B03F68853D3E90034244A02F6A85201
:102A4000C2E90034224B03F5D4530E331A781F4BDE
:102A500083F8182F1E4B03F5D4530E331A781B4BF3
:102A600083F8172F1A4B03F5D4530F331A78174BEB
:102A700083F8142F164B03F5D4530F331A78134BE6
:102A800083F8132F124B03F5D4530F331A780F4BDF
:102A900083F8162F0E4B03F5D4530F331A780B4BD4
:102AA00083F8112F0A4B03F5D4530E331A78074BD2
:102AB00083F8122F064B03F5D4530F331A78034BC8
:102AC00083F8152F00BF1037BD46B0BDF0100020B1
:102AD000102000200000F04080B400AF2D4B03F523
:102AE000D3531C331B682C4AB2F8A22E93420CD34A
:102AF000284B03F5D453093306221A70254B03F5EE
:102B0000D3531C3300221A603FE0224B03F5D45309
:102B10000F331A78204B83F8182F1E4B03F5D4532C
:102B20000E331A781C4B83F8172F1A4B03F5D45326
:102B30000E331A78184B83F8112F164B03F5D45324
:102B40000F331A78144B83F8122F124B03F5D4531A
:102B50000F331A78104B83F8132F0E4B03F5D45311
:102B60000F331A780C4B83F8162F0A4B03F5D45306
:102B70000F331A78084B83F8152F064B03F5D453FF
:102B80000F331A78044B83F8142F00BFBD465DF84D
:102B9000047B704710200020F010002090B400AF9C
:102BA000324B03F5D3531C331B68314AB2F8A42EC1
:102BB00093420CD32D4B03F5D453093304221A70DE
:102BC0002A4B03F5D3531C3300221A6049E0274BEC
:102BD00003F5D4530E331A78254B83F8172F234B64
:102BE00003F5D4530F331A78214B83F8132F1F4B5F
:102BF00003F5D4530F331A781D4B83F8162F1B4B54
:102C000003F5D4530E331A78194B83F8122F174B50
:102C100003F5D4530F331A78154B83F8152F134B44
:102C200003F5D4530F331A78114B83F8112F0F4B40
:102C300003F5D4530F331A780D4B83F8142F0C4B34
:102C400003F68853D3E90034094A02F6A852C2E9D0
:102C50000034064B03F5D4530E331A78044B83F833
:102C6000182F00BFBD4690BC704700BF1020002049
:102C7000F0100020B0B584B000AF594B03F5586395
:102C8000D3E90045564BB3F8A23E1846FDF74AFE7D
:102C900002460B4620462946FDF706FD03460C4634
:102CA00044EC173BB0EE470AF0EE670A07F008FC69
:102CB000B0EE407AF0EE607A87ED007B4FF00002D4
:102CC000484BD7E90001FEF719F90346002B14D051
:102CD0004FF000024FF00003D7E90001FEF722F9A0
:102CE0000346002B06D0D7E90001FEF76DF9034635
:102CF000FB8105E00023FB8102E04FF6FF73FB81BF
:102D0000394B03F5D3531C331A68FB899A420CD311
:102D1000354B03F5D453093308221A70324B03F5AF
:102D2000D3531C3300221A6055E02D4BB3F8963E66
:102D3000012B06D02C4B03F5D453093313221A7000
:102D400049E0274B03F68853D3E90034244A02F6BE
:102D5000A852C2E90034244B03F5D4530E331A7839
:102D60001F4B83F8182F204B03F5D4530E331A78DA
:102D70001B4B83F8172F1C4B03F5D4530F331A78D2
:102D8000174B83F8142F184B03F5D4530F331A78CD
:102D9000134B83F8132F144B03F5D4530F331A78C6
:102DA0000F4B83F8162F104B03F5D4530F331A78BB
:102DB0000B4B83F8112F0C4B03F5D4530E331A78B9
:102DC000074B83F8122F084B03F5D4530F331A78AF
:102DD000034B83F8152F00BF1037BD46B0BD00BFB1
:102DE000F01000200000F0401020002080B400AF60
:102DF0002D4B03F5D3531C331B682C4AB2F8A22E7B
:102E000093420CD3284B03F5D453093307221A708D
:102E1000254B03F5D3531C3300221A603FE0224BAD
:102E200003F5D4530F331A78204B83F8182F1E4B19
:102E300003F5D4530E331A781C4B83F8172F1A4B13
:102E400003F5D4530E331A78184B83F8112F164B11
:102E500003F5D4530F331A78144B83F8122F124B07
:102E600003F5D4530F331A78104B83F8132F0E4BFE
:102E700003F5D4530F331A780C4B83F8162F0A4BF3
:102E800003F5D4530F331A78084B83F8152F064BEC
:102E900003F5D4530F331A78044B83F8142F00BF73
:102EA000BD465DF8047B704710200020F010002024
:102EB000B0B584B000AF594B03F69853D3E9004541
:102EC000564BB3F8A23E1846FDF72CFD02460B46C2
:102ED00020462946FDF7E8FB03460C4644EC173B29
:102EE000B0EE470AF0EE670A07F0EAFAB0EE407A71
:102EF000F0EE607A87ED007B4FF00002484BD7E997
:102F00000001FDF7FBFF0346002B14D04FF0000239
:102F10004FF00003D7E90001FEF704F80346002B49
:102F200006D0D7E90001FEF74FF80346FB8105E024
:102F30000023FB8102E04FF6FF73FB81394B03F561
:102F4000D3531C331A68FB899A420CD3354B03F5D3
:102F5000D45309330A221A70324B03F5D3531C336E
:102F600000221A6055E02D4BB3F8963E072B06D091
:102F70002C4B03F5D453093313221A7049E0274B25
:102F800003F68853D3E90034244A02F6A852C2E972
:102F90000034244B03F5D4530E331A781F4B83F8B7
:102FA000182F204B03F5D4530E331A781B4B83F89C
:102FB000172F1C4B03F5D4530F331A78174B83F894
:102FC000142F184B03F5D4530F331A78134B83F88F
:102FD000132F144B03F5D4530F331A780F4B83F888
:102FE000162F104B03F5D4530F331A780B4B83F87D
:102FF000112F0C4B03F5D4530E331A78074B83F87B
:10300000122F084B03F5D4530F331A78034B83F870
:10301000152F00BF1037BD46B0BD00BFF010002017
:103020000000F0401020002080B400AF2D4B03F5CD
:10303000D3531C331B682C4AB2F8A22E93420CD3F4
:10304000284B03F5D453093309221A70254B03F595
:10305000D3531C3300221A603FE0224B03F5D453B4
:103060000F331A78204B83F8182F1E4B03F5D453D7
:103070000E331A781C4B83F8172F1A4B03F5D453D1
:103080000E331A78184B83F8112F164B03F5D453CF
:103090000F331A78144B83F8122F124B03F5D453C5
:1030A0000F331A78104B83F8132F0E4B03F5D453BC
:1030B0000F331A780C4B83F8162F0A4B03F5D453B1
:1030C0000F331A78084B83F8152F064B03F5D453AA
:1030D0000F331A78044B83F8142F00BFBD465DF8F8
:1030E000047B704710200020F010002090B482B0C4
:1030F00000AF3B4BB3F8983E1A46394BB3F8A23EAB
:10310000D31A7B60364BB3F8983E1A467B689342DD
:1031100001D900237B60334B03F5D3531C331B6869
:103120007A689A420CD82F4B03F5D45309330E22F8
:103130001A702C4B03F5D3531C3300221A6049E05C
:10314000274B03F68853D3E90034254A02F6A852E8
:10315000C2E90034234B03F5D4530E331A78204BC5
:1031600083F8182F1F4B03F5D4530E331A781C4BDA
:1031700083F8172F1B4B03F5D4530F331A78184BD2
:1031800083F8142F174B03F5D4530F331A78144BCD
:1031900083F8132F134B03F5D4530F331A78104BC6
:1031A00083F8162F0F4B03F5D4530F331A780C4BBB
:1031B00083F8112F0B4B03F5D4530E331A78084BB9
:1031C00083F8122F074B03F5D4530F331A78044BAF
:1031D00083F8152F00BF0837BD4690BC704700BF6D
:1031E000F01000201020002080B400AF2D4B03F51C
:1031F000D3531C331B682C4AB2F8A22E93420CD333
:10320000284B03F5D45309330B221A70254B03F5D1
:10321000D3531C3300221A603FE0224B03F5D453F2
:103220000F331A78204B83F8182F1E4B03F5D45315
:103230000E331A781C4B83F8172F1A4B03F5D4530F
:103240000E331A78184B83F8112F164B03F5D4530D
:103250000F331A78144B83F8122F124B03F5D45303
:103260000F331A78104B83F8132F0E4B03F5D453FA
:103270000F331A780C4B83F8162F0A4B03F5D453EF
:103280000F331A78084B83F8152F064B03F5D453E8
:103290000F331A78044B83F8142F00BFBD465DF836
:1032A000047B704710200020F0100020B0B584B0DF
:1032B00000AF5F4B03F55863D3E900455C4BB3F8AF
:1032C000A63E1846FDF72EFB02460B462046294631
:1032D000FDF7EAF903460C4644EC173BB0EE470A0B
:1032E000F0EE670A07F0ECF8B0EE407AF0EE607AA4
:1032F00087ED007B4FF000024E4BD7E90001FDF750
:10330000FDFD0346002B14D04FF000024FF00003E8
:10331000D7E90001FDF706FE0346002B06D0D7E9EA
:103320000001FDF751FE03467B8105E000237B8110
:1033300002E04FF6FF737B817B893D4AB2F8982EFD
:103340009B1AFB607B89FA689A4201D90023FB60D3
:10335000394B03F5D3531C331B68FA689A420CD8D7
:10336000354B03F5D45309330C221A70324B03F555
:10337000D3531C3300221A6055E02D4BB3F8963E10
:10338000052B06D02C4B03F5D453093313221A70A6
:1033900049E0274B03F55963D3E90034244A02F688
:1033A000A852C2E90034244B03F5D4530E331A78E3
:1033B0001F4B83F8182F204B03F5D4530E331A7884
:1033C0001B4B83F8172F1C4B03F5D4530F331A787C
:1033D000174B83F8142F184B03F5D4530F331A7877
:1033E000134B83F8132F144B03F5D4530F331A7870
:1033F0000F4B83F8162F104B03F5D4530F331A7865
:103400000B4B83F8112F0C4B03F5D4530F331A7861
:10341000074B83F8122F084B03F5D4530E331A7859
:10342000034B83F8152F00BF1037BD46B0BD00BF5A
:10343000F01000200000F0401020002080B400AF09
:103440002D4B03F5D3531C331B682C4AB2F8A62E20
:1034500093420CD3284B03F5D45309330D221A7031
:10346000254B03F5D3531C3300221A603FE0224B57
:1034700003F5D4530F331A78204B83F8182F1E4BC3
:1034800003F5D4530E331A781C4B83F8172F1A4BBD
:1034900003F5D4530F331A78184B83F8112F164BBA
:1034A00003F5D4530F331A78144B83F8122F124BB1
:1034B00003F5D4530F331A78104B83F8132F0E4BA8
:1034C00003F5D4530F331A780C4B83F8162F0A4B9D
:1034D00003F5D4530F331A78084B83F8152F064B96
:1034E00003F5D4530E331A78044B83F8142F00BF1E
:1034F000BD465DF8047B704710200020F0100020CE
:1035000090B482B000AF3B4BB3F8983E1A46394BAB
:10351000B3F8A63ED31A7B60364BB3F8983E1A46F2
:103520007B68934201D900237B60334B03F5D3536F
:103530001C331B687A689A420CD82F4B03F5D4537E
:10354000093312221A702C4B03F5D3531C3300227B
:103550001A6049E0274B03F68853D3E90034254A23
:1035600002F6A852C2E90034234B03F5D4530E33BC
:103570001A78204B83F8182F1F4B03F5D4530E33C2
:103580001A781C4B83F8172F1B4B03F5D4530F33BA
:103590001A78184B83F8142F174B03F5D4530F33B5
:1035A0001A78144B83F8132F134B03F5D4530F33AE
:1035B0001A78104B83F8162F0F4B03F5D4530F33A3
:1035C0001A780C4B83F8112F0B4B03F5D4530E33A1
:1035D0001A78084B83F8122F074B03F5D4530F3397
:1035E0001A78044B83F8152F00BF0837BD4690BCEE
:1035F000704700BFF01000201020002080B400AF02
:103600002D4B03F5D3531C331B682C4AB2F8A22E62
:1036100093420CD3284B03F5D45309330F221A706D
:10362000254B03F5D3531C3300221A603FE0224B95
:1036300003F5D4530F331A78204B83F8182F1E4B01
:1036400003F5D4530E331A781C4B83F8172F1A4BFB
:1036500003F5D4530E331A78184B83F8112F164BF9
:1036600003F5D4530F331A78144B83F8122F124BEF
:1036700003F5D4530F331A78104B83F8132F0E4BE6
:1036800003F5D4530F331A780C4B83F8162F0A4BDB
:1036900003F5D4530F331A78084B83F8152F064BD4
:1036A00003F5D4530F331A78044B83F8142F00BF5B
:1036B000BD465DF8047B704710200020F01000200C
:1036C000B0B584B000AF5F4BB3F8963E062B06D082
:1036D0005D4B03F5D453093313221A70ADE0594BF7
:1036E00003F69853D3E90045564BB3F8A63E184667
:1036F000FDF718F902460B4620462946FCF7D4FF91
:1037000003460C4644EC173BB0EE470AF0EE670A5E
:1037100006F0D6FEB0EE407AF0EE607A87ED007BE0
:103720004FF00002494BD7E90001FDF7E7FB0346E4
:10373000002B14D04FF000024FF00003D7E9000136
:10374000FDF7F0FB0346002B06D0D7E90001FDF79B
:103750003BFC03467B8105E000237B8102E04FF6C2
:10376000FF737B817B89374AB2F8982E9B1AFB60E6
:103770007B89FA689A4201D90023FB60324B03F53A
:10378000D3531C331B68FA689A420CD82E4B03F5AE
:10379000D453093310221A702B4B03F5D3531C3327
:1037A00000221A6049E0274B03F55963D3E900343E
:1037B000244A02F6A852C2E90034234B03F5D4533D
:1037C0000E331A781F4B83F8182F1F4B03F5D45371
:1037D0000E331A781B4B83F8172F1B4B03F5D4536A
:1037E0000F331A78174B83F8142F174B03F5D45364
:1037F0000F331A78134B83F8132F134B03F5D4535D
:103800000F331A780F4B83F8162F0F4B03F5D45351
:103810000F331A780B4B83F8112F0B4B03F5D4534E
:103820000F331A78074B83F8122F074B03F5D45345
:103830000E331A78034B83F8152F00BF1037BD469F
:10384000B0BD00BFF0100020102000200000F040AC
:1038500080B400AF524BB3F8963E013B092B00F207
:10386000998001A252F823F091380000AB38000093
:10387000F9380000DF380000C538000013390000B7
:103880002D39000047390000613900007B39000004
:10389000444B03F5D453093307221A70414B03F507
:1038A000D3531C3300221A6074E03E4B03F5D4530B
:1038B000093301221A703B4B03F5D3531C3300220A
:1038C0001A6067E0374B03F5D45309330D221A70A1
:1038D000344B03F5D3531C3300221A605AE0314BAA
:1038E00003F5D453093318221A702E4B03F5D35322
:1038F0001C3300221A604DE02A4B03F5D4530933E0
:1039000014221A70274B03F5D3531C3300221A607C
:1039100040E0244B03F5D453093311221A70214B94
:1039200003F5D3531C3300221A6033E01D4B03F51B
:10393000D453093309221A701A4B03F5D3531C339D
:1039400000221A6026E0174B03F5D45309331622E0
:103950001A70144B03F5D3531C3300221A6019E07C
:10396000104B03F5D453093304221A700D4B03F5A1
:10397000D3531C3300221A600CE00A4B03F5D453D6
:1039800009331B221A70074B03F5D3531C33002253
:103990001A6000BF00BFBD465DF8047B704700BFE2
:1039A000F01000201020002080B582B000AF7860B9
:1039B0007B685B68012B08D17B681B7A002B04D0E5
:1039C0007B681B69184604F08FFF00BF0837BD46AF
:1039D00080BD80B582B000AF78607868FFF7E4FF03
:1039E00000BF0837BD4680BD80B582B000AF7860AB
:1039F0007B681B78002B05D17B6801221A707868E0
:103A0000FFF7E7FF00BF0837BD4680BD80B582B035
:103A100000AF78607B685B68012B0DD17B681B7AF7
:103A2000002B09D07B681B69184604F067F97B6896
:103A30001B69184604F06CF900BF0837BD4680BD0D
:103A400080B582B000AF78607868FFF7DFFF00BF15
:103A50000837BD4680BD80B582B000AF78607B6816
:103A60001B78002B05D17B6801221A707868FFF75C
:103A7000E7FF00BF0837BD4680BD80B582B000AF0C
:103A800078607B685B68012B08D17B681B7A002B10
:103A900004D07B681B69184605F00DF900BF083794
:103AA000BD4680BD80B582B000AF78607868FFF712
:103AB000E4FF00BF0837BD4680BD80B582B000AFCF
:103AC00078607B681B78002B05D17B6801221A7017
:103AD0007868FFF7E7FF00BF0837BD4680BD80B5B7
:103AE00082B000AF78607B685B68012B08D17B688F
:103AF0001B7A002B04D07B681B69184605F0DBF8A5
:103B000000BF0837BD4680BD80B582B000AF786089
:103B10007868FFF7E4FF00BF0837BD4680BD80B579
:103B200082B000AF78607B681B78002B05D17B6882
:103B300001221A707868FFF7E7FF00BF0837BD461B
:103B400080BD80B582B000AF78607B685B68012B78
:103B500008D17B681B7A002B04D07B689B6A1846CF
:103B600004F083F900BF0837BD4680BD80B582B040
:103B700000AF78607868FFF7E4FF00BF0837BD4604
:103B800080BD80B582B000AF78607B681B78002B69
:103B900005D17B6801221A707868FFF7E7FF00BF44
:103BA0000837BD4680BD80B483B000AF78607B68C5
:103BB0005B68012B02D17B6802225A6000BF0C3780
:103BC000BD465DF8047B704780B582B000AF786079
:103BD0007868FFF7E8FF00BF0837BD4680BD80B5B5
:103BE00082B000AF78607B681B78002B05D17B68C2
:103BF00001221A707868FFF7E7FF00BF0837BD465B
:103C000080BD80B485B000AF78607B685B68012BB5
:103C100011D17B681B7A002B0DD07B68DB6AFB60BF
:103C2000FB681B68012B02D1FB6802221A607B68CB
:103C30004FF0FF321A6300BF1437BD465DF8047BB6
:103C4000704780B582B000AF78607868FFF7D9FF21
:103C500000BF0837BD4680BD80B582B000AF786038
:103C60007B681B78002B05D17B6801221A7078686D
:103C7000FFF7E7FF00BF0837BD4680BD80B582B0C3
:103C800000AF78607B685B68012B08D17B681B7A8A
:103C9000002B04D07B681B69184605F00CF800BFA8
:103CA0000837BD4680BD80B582B000AF78607868C7
:103CB000FFF7E4FF00BF0837BD4680BD80B582B086
:103CC00000AF78607B681B78002B05D17B680122F0
:103CD0001A707868FFF7E7FF00BF0837BD4680BD60
:103CE00080B582B000AF78607B685B68012B0DD136
:103CF0007B681B7A002B09D07B681B69184604F08F
:103D0000FDF97B681B69184604F00EFA00BF0837FE
:103D1000BD4680BD80B582B000AF78607868FFF79F
:103D2000DFFF00BF0837BD4680BD80B582B000AF61
:103D300078607B681B78002B05D17B6801221A70A4
:103D40007868FFF7E7FF00BF0837BD4680BD000079
:103D500080B584B002AF78607B6800221A727B68FD
:103D600001225A605E4B002283F87A2D5C4B0022C0
:103D7000C3F87C2D5A4BD3F87C2D594B93F87A3DE0
:103D80001946104603F0CEFF02467B689A627B68B4
:103D9000544A5A627B689A6A7B685B6A1946104685
:103DA00003F0E4FF4E4B2B2283F80C2F4C4B4022A8
:103DB00083F80D2F7B68986A0023019300230093FA
:103DC0000223494A1D2104F01CF84FF4FA7008F050
:103DD0001FFA434B2A2283F80F2F7B68986A00232F
:103DE0000193012300930123404A1D2104F009F8A7
:103DF00003461A463A4B83F80F2F394B93F80F3F7F
:103E0000002B10D17B68986A012301930023009353
:103E10000123364A1D2103F0C0FF012233493448F3
:103E2000FEF748FA03E02E4B002283F80E2F2C4BAE
:103E30002A2283F80C2F2A4B93F80E3F23F001031C
:103E4000DAB2274B83F80D2F7B68986A0023019321
:103E5000002300930223244A1D2103F0D2FF204BAC
:103E60000E2283F80C2F1E4B012283F80D2F7B6846
:103E7000986A002301930023009302231A4A1D210C
:103E800003F0BFFF164B5B2283F80C2F144B00226C
:103E900083F80D2F7B68986A002301930023009319
:103EA0000223114A1D2103F0ACFF0D4B2A2283F897
:103EB0000C2F0B4B012283F80D2F7B68986A00238F
:103EC0000193002300930223074A1D2103F099FF69
:103ED0007B6801221A7200BF0837BD4680BD00BF53
:103EE000F0100020A0860100FC1F0020FF1F002012
:103EF000FE1F002080B483B000AF786039607B681B
:103F000000221A727B6801225A607B6801221A63C0
:103F10003B6800221A607B683A68DA627B6801229B
:103F20001A727B6800225A7200BF0C37BD465DF8DA
:103F3000047B704780B582B000AF78607B68002258
:103F40001A727B6801225A601A4B4FF0FF32C3F895
:103F5000702D184B0022C3F8742D164BD3F8703D0A
:103F60000A220021144804F037F902467B681A61DE
:103F70007B681B694FF4E131184604F003FC0D4BDC
:103F8000012283F8782D0B4B002283F8792D7B6872
:103F90001869084B93F8792D064B93F8783D082162
:103FA00004F0FCFB7B6801221A7200BF0837BD4693
:103FB00080BD00BFF0100020641E00200000000043
:103FC0002DE9F04F8FB002AFA54B03F5CB53103363
:103FD000D3E90001A34BD3E90C341A462346FCF77E
:103FE00083FF0346002B08D19E4BD3E90C129C4B58
:103FF00003F5CB531033C3E90012994B03F5CB53B0
:1040000008331B6854229849184604F0DBFB03462A
:10401000FB75542294499548FEF74CF9904B03F5F3
:10402000C6531033D3E900018E4BD3E90A341A4644
:104030002346FCF759FF0346002B08D1894BD3E9EF
:104040000A12874B03F5C6531033C3E90012844BA1
:1040500003F5C65308331B68184603F045FE804B32
:1040600003F5C65308331B6807228149184603F03D
:10407000DFFD7B4B03F5C7531033D3E90001794BC8
:10408000D3E908341A462346FCF72EFF0346002BDB
:1040900008D1744BD3E90812714B03F5C7531033A1
:1040A000C3E900126E4B03F5C75308331B6818466B
:1040B00003F01AFE6A4B03F5C75308331B68072247
:1040C0006C49184603F0B4FD654B03F5D4530A332D
:1040D0001B78002B78D1624B03F5D4530A330122AD
:1040E0001A705F4B03F5D4530B3301221A70624BE5
:1040F0000622A3F8962E604B3C22A3F8902E5E4B2E
:104100007822A3F8922E5C4BFA22A3F8942E5A4BF5
:104110009622A3F8982E584B0A22A3F89A2E564BB3
:104120001022A3F89C2E544B03F6F85244A4D4E971
:104130000034C2E90034504B1422A3F89E2E4E4B9B
:10414000B422A3F8A02E4C4B03F560624FF000039D
:104150004A4CC2E90034484B0A22A3F8A22E464B2F
:10416000C822A3F8A42E444B03F6086236A4D4E96F
:104170000034C2E90034404B03F5616234A4D4E951
:104180000034C2E900343C4B03F618624FF00003E0
:104190003A4CC2E90034384B0A22A3F8A62E364B1B
:1041A000C822A3F8A82E344B03F562622AA4D4E9EE
:1041B0000034C2E90034304B03F6286224A4D4E969
:1041C0000034C2E90034D6E0254B03F5D4530B3359
:1041D0001B78022B0AD0032B0FD0012B14D1204BBC
:1041E00003F5D4530B3304221A70C4E01C4B03F5BF
:1041F000D4530B3304221A70BDE0194B03F5D4538A
:104200000B3304221A70B6E0FB7D002B40F0B28025
:10421000194B93F8C43C162B40F0A580164B93F82D
:10422000C53C222B02D0552B2AD094E00C4B03F531
:10423000D4530B3302221A7003F0DCF99AE000BF6A
:104240009A9999999999C93FCDCCCCCCCCCCFC3FCB
:1042500033333333333303409A9999999999014011
:104260001020002000000020081E0020B41D0020A7
:10427000201F0020281F0020F010002000000C400C
:10428000834B03F5D4530B3303221A700222814966
:104290008148FEF70FF8022280498148FEF70AF8AC
:1042A000022280498048FEF705F802227F498048B3
:1042B000FEF700F802227F497F48FDF7FBFF02224C
:1042C0007E497F48FDF7F6FF02227E497E48FDF7D2
:1042D000F1FF08227D497E48FDF7ECFF02227D496F
:1042E0007D48FDF7E7FF02227C497D48FDF7E2FFAC
:1042F00008227C497C48FDF7DDFF02227B497C488F
:10430000FDF7D8FF02227B497B48FDF7D3FF082247
:104310007A497B48FDF7CEFF08227A497A48FDF7B3
:10432000C9FF082279497A48FDF7C4FF022279497A
:104330007948FDF7BFFF022278497948FDF7BAFFB7
:10434000082278497848FDF7B5FF08227749784870
:10435000FDF7B0FF0EE04E4B03F5D4530B330422B0
:104360001A7000BF06E04A4B03F5D4530B33042206
:104370001A70FFE700BF6F4BD3E912896E4BB3F899
:10438000903E1846FCF7CEFA03460C461A462346E2
:1043900040464946FCF76AFC03460C46664A02F56D
:1043A0005862C2E900343A4B03F5C8531033D3E9DD
:1043B0000001604BD3E906341A462346FCF794FD0E
:1043C0000346002B08D15B4BD3E90612304B03F5B3
:1043D000C8531033C3E900122D4B03F5C8530833FB
:1043E0001B68184604F0F0FB03461A46524B83F84C
:1043F0001A2F274B03F5C9531033D3E900014D4B56
:10440000D3E904341A462346FCF76EFD0346002B1D
:1044100008D1484BD3E904121D4B03F5C95310339F
:10442000C3E900121A4B03F5C95308331B68184639
:1044300004F0CAFB0346FB77154B03F5CA53103350
:10444000D3E900013B4BD3E902341A462346FCF77B
:104450004BFD0346002B08D1364BD3E902120C4B1F
:1044600003F5CA531033C3E90012094B03F5CA53CD
:1044700008331B68184604F0A7FB0346BB77BB7FD5
:10448000002B02D1FB7F002B58D0012357E000BF47
:1044900010200020B61D0020861F0020B81D00201F
:1044A000801F0020BA1D0020821F0020BC1D00209C
:1044B000841F0020BE1D0020881F0020C01D00207A
:1044C0008A1F0020C21D00208C1F0020C41D002058
:1044D000E81E0020CC1D00208E1F0020CE1D0020D5
:1044E000901F0020D01D0020F01E0020D81D0020AD
:1044F000921F0020DA1D0020941F0020DC1D0020E8
:10450000F81E0020E41D0020001F0020EC1D0020EC
:10451000081F0020F41D0020961F0020F61D00201B
:10452000981F0020F81D0020101F0020001E0020F2
:10453000181F002000000020F01000200023DAB235
:10454000674B83F8102F664B03F56063D3E90001D6
:10455000644BD3E914341A462346FCF787FB034621
:104560000C46184621465F4BD3E916341A462346BB
:10457000FCF752FA03460C46594A02F68852C2E941
:104580000034574B03F61863D3E90001554BD3E9C8
:1045900014341A462346FCF769FB03460C461846BA
:1045A0002146504BD3E918341A462346FCF734FA17
:1045B00003460C464A4A02F55962C2E90034484BA8
:1045C000B3F8962E474B1B889A4240F22786444BFD
:1045D000B3F8962E434B5B889A4200F01F86424BFD
:1045E00003F5C4531833D3E900013E4BD3E90E342D
:1045F0001A462346FCF778FC0346002B08D1394BBA
:10460000D3E90E12384B03F5C4531833C3E9001233
:104610000123FB75344B03F5C5531033186807F1BC
:104620001702002301930123009301231D2103F0AE
:10463000E8FB0346FB75FB7D002B57D12A4B03F5A6
:10464000C5531033186807F10802012301930023B2
:10465000009306231D2103F0A0FB07F1080107F1D9
:10466000100306221846FDF725FE07F110013B1D39
:1046700002221846FDF71EFE7B793B703B797B706A
:10468000394607F1100302221846FDF713FE07F121
:104690001003991C3B1D02221846FDF70BFE7B7987
:1046A0003B703B797B70394607F1100302330222DD
:1046B0001846FDF7FFFD07F11003191D3B1D0222EF
:1046C0001846FDF7F7FD7B793B703B797B703946E7
:1046D00007F11003043302221846FDF7EBFD0BE04F
:1046E000F0100020000000201020002000233B825A
:1046F00000237B820023BB82B7F910309B101BB2D2
:104700001846FCF71FF902460B46FBF7CFFF03469E
:104710000C4618462146B0A3D3E90023FCF77CF9E8
:1047200003460C46184621464FF00002AC4BFCF7FE
:104730009DFA03460C46AB4A02F65862C2E90034C1
:10474000B7F912309B101BB21846FCF7FBF8024673
:104750000B46FBF7ABFF03460C46184621469EA3CB
:10476000D3E90023FCF758F903460C4618462146C6
:104770004FF000029A4BFCF779FA03460C46994A2F
:1047800002F56662C2E90034B7F914309B101BB21F
:104790001846FCF7D7F802460B46FBF787FF03469F
:1047A0000C46184621468CA3D3E90023FCF734F9C4
:1047B00003460C46184621464FF00002884BFCF792
:1047C00055FA03460C46874A02F66862C2E900348D
:1047D000844B03F65863D3E90001824B03F6586318
:1047E000D3E900341A462346FCF716F903460C4673
:1047F0009846A1467B4B03F56663D3E90001794BEC
:1048000003F56663D3E900341A462346FCF704F93E
:1048100003460C461A46234640464946FBF746FFE8
:1048200003460C469846A1466E4B03F66863D3E9EF
:1048300000016C4B03F66863D3E900341A46234643
:10484000FCF7EAF803460C461A462346404649461A
:10485000FBF72CFF03460C4644EC173BB0EE470A2F
:10486000F0EE670A0AF04CF8B0EE407AF0EE607AAB
:104870005C4B03F6686383ED007B5B4B03F5C2532F
:1048800019331B78002B05D0574B03F5C25319334E
:1048900000221A70544B03F5C3531C331B68BB61D1
:1048A000BB691B68012B00F0D680BB6900221A711E
:1048B000BB6901221A600023BB620DE0BA69BB6AC2
:1048C0000133DB001A444FF000034FF00004C2E94B
:1048D0000034BB6A0133BB62BB6A7F2BEEDD002371
:1048E000BB620DE0BA69BB6A8133DB001A444FF04A
:1048F00000034FF00004C2E90034BB6A0133BB621D
:10490000BB6A7F2BEEDD0023BB620EE0BA69BB6A97
:1049100003F20113DB001A444FF000034FF00004D0
:10492000C2E90034BB6A0133BB62BB6A7F2BEDDD99
:10493000BB6903F608424FF000034FF00004C2E9E0
:104940000034BB6903F541624FF000034FF00004EF
:10495000C2E90034BB6903F618424FF000034FF080
:104960000004C2E90034BB6903F542624FF0000362
:104970004FF00004C2E90034BB6901221A71002320
:10498000BB620DE0BA69BB6A0133DB001A444FF029
:1049900000034FF00004C2E90034BB6A0133BB627C
:1049A000BB6A7F2BEEDD0023BB620DE0BA69BB6AF8
:1049B0008133DB001A444FF000034FF00004C2E9DA
:1049C0000034BB6A0133BB62BB6A7F2BEEDD002380
:1049D000BB621AE0AFF3008008AC1C5A643BCF3FC7
:1049E00000408F40F010002010200020BA69BB6A00
:1049F00003F20113DB001A444FF000034FF00004F0
:104A0000C2E90034BB6A0133BB62BB6A7F2BEDDDB8
:104A1000BB6903F608424FF000034FF00004C2E9FF
:104A20000034BB6903F541624FF000034FF000040E
:104A3000C2E90034BB6903F618424FF000034FF09F
:104A40000004C2E90034BB6903F542624FF0000381
:104A5000194CC2E900340023BB620FE0BA69BB6A9B
:104A60000133DB001344D3E900341449BA6AD2009D
:104A70000A44C2E90034BB6A0133BB62BB6A7F2BC4
:104A8000ECDD0023BB6210E0BA69BB6A8133DB0056
:104A90001344D3E900340949BA6A8032D2000A4487
:104AA000C2E90034BB6A0133BB62BB6A7F2BEBDD1A
:104AB0000023BB6217E000BF0000F03FF0100020B1
:104AC000BA69BB6A03F20113DB001344D3E9003473
:104AD000BD49BA6A02F58072D2000A44C2E90034C4
:104AE000BB6A0133BB62BB6A7F2BE9DDBB6903F69E
:104AF0000843D3E90034B44A02F56462C2E90034E1
:104B0000BB6903F54163D3E90034AF4A02F648625A
:104B1000C2E90034BB6903F61843D3E90034AA4A5A
:104B200002F56562C2E90034BB6903F54263D3E96B
:104B30000034A54A02F65862C2E90034A24B03F5DC
:104B40006463D3E90001A04B03F66863D3E9003442
:104B50001A462346FBF7AAFD03460C469A4A02F57D
:104B60006462C2E90034984B03F56563D3E900340D
:104B7000954A02F56662C2E90034934B03F565631A
:104B8000D3E90089904B03F65863D3E900341A4601
:104B900023464FF000008D49FCF768F803460C46A9
:104BA0009A46A346884B03F66863D3E90001864B17
:104BB00003F56563D3E900341A462346FBF774FD19
:104BC00003460C461A46234650465946FBF724FF37
:104BD00003460C461A46234640464946FBF766FD07
:104BE00003460C46784A02F56562C2E90034764B0A
:104BF00003F66863D3E90001734B03F56663D3E9F9
:104C000000341A462346FBF74FFD03460C466E4A16
:104C100002F56662C2E900346B4B03F64863D3E9E0
:104C20000089694B03F65863D3E900014FF0000295
:104C3000664BFBF739FD03460C4618462146624B8E
:104C400003F56663D3E900341A462346FBF7E4FE16
:104C500003460C46184621465B4B03F56663D3E9D1
:104C600000341A462346FBF7D7FE03460C46184687
:104C70002146554B03F65863D3E900341A462346C0
:104C8000FBF7F4FF03460C461A46234640464946C6
:104C9000FBF70CFD03460C464B4A02F64862C2E99C
:104CA0000034494B03F65863D3E900341A462346CF
:104CB0004FF000004649FBF7F7FC03460C46184648
:104CC0002146FCF759F90346013BBB623E4B03F614
:104CD0005863D3E900341A4623464FF000003C499C
:104CE000FBF7E2FC03460C4618462146364B03F61A
:104CF0005863D3E900341A462346FBF7B7FF03464F
:104D00000C4618462146304B03F56463D3E9003462
:104D10001A462346FBF780FE03460C4618462146FA
:104D2000294ABB6A8033DB001344D3E900341A46B6
:104D30002346FBF7B9FC03460C46234A02F566629C
:104D4000C2E90034204B03F65863D3E900891E4BB7
:104D500003F65863D3E900341A4623464FF00000A7
:104D60001B49FBF7A1FC03460C4618462146164B8F
:104D700003F65863D3E900341A462346FBF796FC42
:104D800003460C469A46A3460F4B03F65863D3E9F5
:104D900000341A4623464FF000000D49FBF784FC0F
:104DA00003460C461A46234650465946FBF734FE46
:104DB00003460C461A46234640464946FBF756FF33
:104DC00003460C46984605E0F01000200000F03F36
:104DD00000006040A1464A4B03F56663D3E9000139
:104DE000474B03F56663D3E900341A462346FBF7C5
:104DF00013FE03460C461A46234640464946FBF737
:104E00000BFE03460C469846A1463D4ABB6A03F595
:104E10008073DB001344D3E90001394B03F6486388
:104E2000D3E900341A462346FBF740FC03460C4600
:104E30001A46234640464946FBF738FC03460C46D3
:104E4000184621462CA3D3E90023FBF70FFF0346A6
:104E50000C462B4A02F56662C2E90034284B03F681
:104E60006863D3E900342649BA6AD2000A44C2E929
:104E70000034234B03F65863D3E900011EA3D3E9A2
:104E80000023FCF73BF80346002B11D01C4B03F624
:104E90005863D3E900014FF000021A4BFBF706FC00
:104EA00003460C46164A02F65862C2E900342EE167
:104EB000134B03F658624FF00003124CC2E9003462
:104EC0004FF480620E491048FDF7F4F90C4B03F6DD
:104ED00068624FF000034FF00004C2E90034084B51
:104EE00003F564624FF000034FF00004C2E90034A0
:104EF0000023BB62ECE000BF0000000000C05F4088
:104F0000F01000200000F03FF0140020BB6A0133D5
:104F1000974A8033DB001344D3E90001944ABB6A0B
:104F20008033DB001344D3E90034BA6A02F101088C
:104F30001A462346FBF7BAFB03460C468C4908F198
:104F40008002D2000A44C2E90034894B03F6686348
:104F5000D3E90034864A02F64862C2E90034844B41
:104F600003F66863D3E90089B86AFBF7EBFC4FF0FE
:104F70000002804BFBF79AFB03460C461A46234679
:104F80004FF000007B49FBF771FE03460C469A4642
:104F9000A346774ABB6ADB001344D3E90001744B94
:104FA00003F66863D3E900341A462346FBF77CFB1B
:104FB00003460C461A46234650465946FBF72CFD3D
:104FC00003460C461A46234640464946FBF76EFB0D
:104FD00003460C46664A02F66862C2E90034644A37
:104FE000BB6ADB001344D3E90001614B03F648635D
:104FF000D3E900341A462346FBF756FB03460C461A
:105000005B4A02F64862C2E90034594B03F5646317
:10501000D3E90089B86AFBF795FC4FF00002554BC5
:10502000FBF744FB03460C46184621464FF00002AE
:10503000504BFBF739FB03460C46184621464C4BB8
:1050400003F64863D3E900341A462346FBF7E4FC31
:1050500003460C4618462146454B03F64863D3E900
:1050600000341A462346FBF7D7FC03460C469A4603
:10507000A346B86AFBF766FC4FF000023D4BFBF716
:1050800015FB03460C461A46234650465946FBF785
:10509000EDFD03460C461A46234640464946FBF7BB
:1050A00005FB03460C46324A02F56462C2E900344D
:1050B0002F4B03F56463D3E900342D49BA6A02F536
:1050C0008072D2000A44C2E90034BB6A0133BB6279
:1050D000BB6A7E2B7FF71AAF254B03F564624FF056
:1050E00000034FF00004C2E90034214B03F648628C
:1050F0004FF000034FF00004C2E900341C4B03F5ED
:1051000065624FF000034FF00004C2E90034002351
:10511000BB620FE0164ABB6ADB001344D3E90034DC
:10512000B969BA6A0132D2000A44C2E90034BB6AE2
:105130000133BB62BB6A7F2BECDD0023BB6210E056
:105140000B4ABB6A8033DB001344D3E90034B969EE
:10515000BA6A8132D2000A44C2E90034BB6A013320
:10516000BB62BB6A7F2BEBDD0023BB6217E000BF95
:10517000F01000200000F03FA54ABB6A03F58073E1
:10518000DB001344D3E90034B969BA6A02F20112B0
:10519000D2000A44C2E90034BB6A0133BB62BB6A75
:1051A0007F2BE9DD9A4B03F56463D3E90034BA69D8
:1051B00002F60842C2E90034954B03F64863D3E98E
:1051C0000034BA6902F54162C2E90034904B03F53C
:1051D0006563D3E90034BA6902F61842C2E90034C3
:1051E0008B4B03F65863D3E90034BA6902F5426287
:1051F000C2E90034864B03F5666393ED007BB0EEA5
:10520000470AF0EE670A09F07BFBB0EE407AF0EE59
:10521000607A7F4B03F55A6383ED007B7C4BB3F8D8
:10522000A02E7B4BB3F8903ED31A9BB21846FBF7E7
:1052300079FB784BD3E91A341A462346FBF716FD5F
:1052400003460C469846A146714BB3F89C3E18465F
:10525000FBF768FB03460C461A4623464046494680
:10526000FBF7DAFB03460C469846A146684BB3F8B9
:10527000903E1846FBF756FB03460C461A4623465B
:1052800040464946FBF712FA03460C46604A02F6CE
:105290005862C2E900345E4B03F6586393ED007B1D
:1052A000B0EE470AF0EE670A09F02EFAB0EE407A47
:1052B000F0EE607A564B03F5666383ED007B544B4A
:1052C00003F56663D3E900014FF00002524BFBF790
:1052D00015FE0346002B3CD04D4B03F56663D3E926
:1052E00000014FF000024D4BFBF71CFE0346002B64
:1052F0001DD0474B03F65863D3E900014FF000027D
:10530000464BFBF7D3F903460C4644EC173BB0EE93
:10531000470AF0EE670A09F003FAB0EE407AF0EEC1
:10532000607A3B4B03F6586383ED007B11E0384B0A
:1053300003F65863D3E900014FF000024FF0000379
:10534000FBF76AFB03460C46314A02F65862C2E993
:1053500000342F4B03F6586393ED007BB0EE470A01
:10536000F0EE670A05F05AF80346002B0DD1284BE2
:1053700003F6586393ED007BB0EE470AF0EE670A40
:1053800005F024F80346002B09D0214B03F65862A0
:105390004FF000034FF00004C2E9003415E01C4B4D
:1053A00003F6586393ED007B9FED171BB0EE470AA1
:1053B000F0EE670A09F03CFAB0EE407AF0EE607A5F
:1053C000134B03F6586383ED007B114B03F65863D0
:1053D000D3E900014FF000024FF00003FBF78EFD10
:1053E0000346002B1CD00A4B03F65863D3E9003464
:1053F0001D4684F0004628463146FBF7E5FD03468E
:105400009BB25B429BB216E0000000000000F0403F
:10541000F010002000000020000030430000E03FBA
:10542000AC4B03F65863D3E9003418462146FBF72A
:10543000CBFD03469BB2FB85A74B03F5D453043346
:105440001B8840F2FE3293420BD8A34B03F5D45392
:1054500004331B8801339AB29F4B03F5D4530433B2
:105460001A809D4B03F5D45306331B78002B40F074
:10547000D180994B03F5D453063301221A70FB8D6A
:10548000944AB2F8902E9B1A3B623B6A7B62FB8D7A
:105490003A6A9A4203D900237B6200233B628D4B18
:1054A000B3F89A3E002B10D17B6A9BB2002B05D13A
:1054B000894B03F5D45300221A8044E0864B03F550
:1054C000D4534FF6FF721A803DE0824BB3F89A3EF8
:1054D000002B08D07B6A9AB27E4BB3F89A3EB2FB9F
:1054E000F3F39AB201E04FF6FF727B4B03F5D4530E
:1054F0001A807B6A9AB2784B03F5D4531988754B9E
:10550000B3F89A3E11FB03F39BB2D31AFB85FB8DD4
:10551000002B18D0FA8D6F4BB3F89A3E5B089BB204
:1055200019466C4BB3F89A3E03F001030B449A42C0
:1055300009DB694B03F5D4531B8801339AB2664BE0
:1055400003F5D4531A80634BB3F89E3E002B12D15F
:105550003B6A9BB2002B06D15F4B03F5D453023359
:1055600000221A8049E05C4B03F5D45302334FF616
:10557000FF721A8041E0574BB3F89E3E002B08D0D3
:105580003B6A9AB2534BB3F89E3EB2FBF3F39AB226
:1055900001E04FF6FF72504B03F5D45302331A80EB
:1055A0003B6A9AB24C4B03F5D45302331988494BEA
:1055B000B3F89E3E11FB03F39BB2D31AFB85FB8D20
:1055C000002B1AD0FA8D434BB3F89E3E5B089BB27A
:1055D0001946404BB3F89E3E03F001030B449A4238
:1055E0000BDB3D4B03F5D45302331B8801339AB2D6
:1055F000394B03F5D45302331A80374B03F5D45398
:10560000073305221A70334BB3F8902E314BA3F8B1
:10561000742E21E2304B03F5D45307331B78013B42
:10562000032B00F2C38101A252F823F03D56000083
:1056300047570000EF570000E1580000254BB3F832
:10564000742E244BB3F8903E9A420CD8224B03F5AB
:10565000D453073305221A701E4BB3F8902E1D4BFE
:10566000A3F8742EF8E11C4B03F5D45304331B88C4
:10567000B3F57A7F32D3174BB3F8742E154BB3F8CA
:10568000903E9A422AD3144B03F5D4530733012298
:105690001A70114B03F5D453043300221A800D4BBA
:1056A000B3F8743E1A460C4B03F5D45302331B88EF
:1056B000D31A7B62074BB3F8743E1A467B6A934257
:1056C00001D900237B627B6A9AB2024BA3F8742E45
:1056D000C2E100BFF010002010200020B14B03F504
:1056E0005A63D3E90001AF4B03F6F853D3E9003412
:1056F0001A462346FBF716FC0346002B00D1ABE10C
:10570000A94B03F5D453073303221A70A64B03F5B4
:10571000D453043300221A80A24BB3F8743E1A46C5
:10572000A14B03F5D4531B8813447B627B6AB3F50A
:10573000803F02D34FF6FF737B627B6A9AB2994B2C
:10574000A3F8742E88E1974B03F55A63D3E900015F
:10575000944B03F6F853D3E900341A462346FBF77B
:10576000CDFB0346002B25D08F4B03F5D4530733D5
:1057700001221A708C4B03F5D453043300221A8093
:10578000884BB3F8743E1A46874B03F5D453023363
:105790001B88D31A7B62834BB3F8743E1A467B6A2C
:1057A000934201D900237B627B6A9AB27D4BA3F8B6
:1057B000742E51E17B4B03F55A63D3E90001794B19
:1057C00003F6F853D3E900341A462346FBF7B4FB3B
:1057D0000346002B00D13FE1734B03F5D45307334D
:1057E00002221A706F4AFB8DA2F8743E34E16E4BB0
:1057F00003F5D45304331B88B3F57A7F28D3694B60
:10580000B3F8743EFA8D9A4222D3674B03F5D45312
:10581000073303221A70644B03F5D4530433002278
:105820001A80604BB3F8743E1A465F4B03F5D453AD
:105830001B8813447B627B6AB3F5803F02D34FF62B
:10584000FF737B627B6A9AB2564BA3F8742E00E119
:10585000544B03F55A63D3E90001524B03F6F85356
:10586000D3E900341A462346FBF748FB0346002BD6
:1058700024D04D4B03F5D453073304221A704A4BFE
:1058800003F5D453043300221A80464BB3F8743E18
:105890001A46454B03F5D4531B88D31A7B62414B00
:1058A000B3F8743E1A467B6A934201D900237B62A7
:1058B0007B6A9AB23B4BA3F8742ECAE0394BB3F81B
:1058C000743EFA8D9A4200F2C480374B03F5D453EC
:1058D000073302221A70334AFB8DA2F8743EB8E0F7
:1058E000304B03F55A63D3E900012E4B03F6F8530E
:1058F000D3E900341A462346FBF714FB0346002B7A
:1059000022D0294B03F5D453073303221A70264BB8
:1059100003F5D453043300221A80224BB3F8743EAB
:105920001A46214B03F5D4531B8813447B627B6AD0
:10593000B3F5803F02D34FF6FF737B627B6A9AB266
:10594000184BA3F8742E86E0174B03F5D453043399
:105950001B88B3F57A7F7ED3134B03F5D4530733FB
:1059600001221A70104B03F5D453043300221A801D
:105970000C4BB3F8743E1A460B4B03F5D453023369
:105980001B88D31A7B62074BB3F8743E1A467B6AB6
:10599000934201D900237B627B6A9AB2014BA3F840
:1059A000742E58E0F010002010200020BC4B03F5AE
:1059B0005A63D3E90001BA4B03F6F853D3E9003434
:1059C0001A462346FBF7AEFA0346002B22D0B54B0E
:1059D00003F5D453073303221A70B24B03F5D453A3
:1059E000043300221A80AE4BB3F8743E1A46AD4B16
:1059F00003F5D4531B8813447B627B6AB3F5803F65
:105A000002D34FF6FF737B627B6A9AB2A44BA3F872
:105A1000742E21E0A24B03F55A63D3E90001A04B99
:105A200003F6F853D3E900341A462346FBF766FA27
:105A30000346002B00D10FE09A4B03F5D4530733F4
:105A400005221A70964BB3F8902E954BA3F8742E3E
:105A500002E000BF00E000BF934BD3E91C45904B30
:105A6000B3F8743E1846FAF75DFF02460B4620462F
:105A70002946FBF7FBF803460C46894A02F6985282
:105A8000C2E90034874B03F5D3531C331B68B3F1D1
:105A9000FF3F0AD0834B03F5D3531C331B685A1CBA
:105AA000804B03F5D3531C331A607E4B03F5D4535C
:105AB00008331B78002B0DD17A4B03F5D4530833F0
:105AC00001221A70774B03F5D453093313221A704D
:105AD00000F07DBE734B03F5D45309331B78013BB3
:105AE0001B2B00F20D8601A252F823F05D5B000033
:105AF000655B00006D5B0000755B00007D5B000076
:105B0000855B00008D5B0000955B00009D5B0000E5
:105B1000A55B0000AD5B0000B55B0000BD5B000055
:105B2000C55B0000CD5B0000D55B0000DD5B0000C5
:105B3000E55B0000995C0000AD5C00002D5E00009C
:105B4000E15E00006960000019610000FB62000076
:105B5000AB6300006F64000051660000FCF71EFD9F
:105B600000F035BEFCF702FE00F031BEFCF760FE2F
:105B700000F02DBEFCF7C8FE00F029BEFCF7ACFF1C
:105B800000F025BEFDF70AF800F021BEFDF772F81F
:105B900000F01DBEFDF72AF900F019BEFDF788F9E7
:105BA00000F015BEFDF740FA00F011BEFDF79EFAB9
:105BB00000F00DBEFDF718FB00F009BEFDF776FB07
:105BC00000F005BEFDF73AFC00F001BEFDF798FCC1
:105BD00000F0FDBDFDF712FD00F0F9BDFDF770FD11
:105BE00000F0F5BD2F4B03F5D3531C331B682C4A33
:105BF000B2F8A62E93420DD32A4B03F5D4530933A2
:105C000011221A70274B03F5D3531C3300221A605C
:105C100000F0DDBD234B03F5D4530F331A78204B2E
:105C200083F8182F1F4B03F5D4530E331A781C4BEF
:105C300083F8172F1B4B03F5D4530F331A78184BE7
:105C400083F8112F174B03F5D4530F331A78144BE5
:105C500083F8122F134B03F5D4530F331A78104BDC
:105C600083F8132F0F4B03F5D4530F331A780C4BD3
:105C700083F8162F0B4B03F5D4530F331A78084BC8
:105C800083F8152F074B03F5D4530E331A78044BC2
:105C900083F8142F00F09BBDFDF7DAFD00F097BDEF
:105CA000F01000201020002000000020B34B03F56E
:105CB0005863D3E90045B14BB3F8A63E1846FAF74E
:105CC00031FE02460B4620462946FAF7EDFC034614
:105CD0000C4644EC173BB0EE470AF0EE670A04F0BE
:105CE000EFFBB0EE407AF0EE607AA44B03F6586317
:105CF00083ED007BA14B03F65863D3E900014FF01D
:105D000000029F4BFBF7FAF80346002B1CD09B4B7D
:105D100003F65863D3E900014FF000024FF000038F
:105D2000FBF700F90346002B0BD0944B03F65863A6
